:020000041000EA
:1000000000B5324B212058609868022188439860DF
:10001000D860186158612E4B002199600221596106
:100020000121F02299502B49196001219960352056
:1000300000F044F80222904214D00621196600F024
:1000400034F8196E01211966002018661A6600F04E
:100050002CF8196E196E196E052000F02FF8012189
:100060000842F9D1002199601B49196000215960AB
:100070001A491B48016001219960EB211966A021F2
:10008000196600F012F800219960164914480160C1
:100090000121996001BC002800D000471248134993
:1000A000086003C880F30888084703B5996A0420EC
:1000B0000142FBD001200142F8D103BD02B5186610
:1000C0001866FFF7F2FF186E186E02BD00000240BE
:1000D000000000180000070000035F00212200005C
:1000E000F4000018222000A00001001008ED00E03C
:1000F00000000000000000000000000074B24E7A12
:1001000000200420F7010010C3010010C5010010F9
:10011000C1010010C1010010C1010010C101001097
:10012000C1010010C1010010C1010010C701001081
:10013000C1010010C1010010C9010010CB01001065
:10014000CD010010CD010010CD010010CD01001037
:10015000CD010010CD010010CD010010CD01001027
:10016000CD010010CD010010CD010010CD01001017
:10017000CD010010CD010010CD010010CD01001007
:10018000CD010010CD010010CD010010CD010010F7
:10019000CD010010CD010010CD010010CD010010E7
:1001A000CD010010CD010010CD010010CD010010D7
:1001B000CD010010CD010010CD010010CD010010C7
:1001C00000BE00BE00BE00BE00BE00BEEFF3058054
:1001D000103800BEF2EB8871E06005100861051070
:1001E0003402001090A31AE700201F49086006C8D7
:1001F00081F3088810471D48006800282FD10DA4FE
:100200000ECC002902D000F012F8F9E71849194A7B
:10021000002000E001C19142FCD1174988471749ED
:1002200088471749884700BEFDE701C901C29A42C5
:10023000FBD3704708610510C0000020701A002031
:10024000B87A05100000042000000420B87A0510D8
:10025000001004200010042000000000704709482E
:1002600004F056F90047000008ED00E0000000D05F
:10027000901A002038E20020CD2A0010A5030010BB
:10028000F92B00105756000006005250ABB36053D4
:10029000FCC5011006005250861C03020CC601105A
:1002A000060052505422A29D20C601100500525053
:1002B000DE65F468B87A0510F8B5C046054B064807
:1002C000033310B51B1A062B03D9044B002B00D0A7
:1002D000984710BD701A0020701A0020000000001E
:1002E0000648074910B5091A8910CB0F591849104B
:1002F00003D0044B002B00D0984710BD701A00208B
:10030000701A00200000000010B5074C2378002B65
:1003100009D1FFF7D3FF054B002B02D0044800E0C2
:1003200000BF0123237010BDE81B00200000000067
:10033000A0C00110094B10B5002B03D00849094893
:1003400000E000BF08480368002B02D1FFF7C8FF98
:1003500010BD064B002BF9D09847F7E700000000CE
:10036000EC1B0020A0C00110701A0020000000004B
:1003700010B5002902D0024804F09AFF10BDC04613
:1003800060C2011010B549680448140004F090FFE1
:10039000002C02D1024804F043FE10BD1CC2011023
:1003A00048C20110F0B5DE4657464E464546E0B518
:1003B000ADB004F089FF8B4813F044FF002800D053
:1003C000FDE013F0E5FE884B884A8949894813F01F
:1003D000EDFE051E00D0EDE0874804F021FEC621A9
:1003E0000120490004F0E0FC844B041E984618608C
:1003F00000D1F1E0C4235B00C5548A23804AFF3357
:10040000C554031D23CA23C323CA23C312681A6019
:100410001AF0A4F87B4B206099467B4B494618683C
:1004200013F0DAFC041E00D1B9E043461868774A9D
:10043000031D01930093924613004946744A0068D5
:100440001AF094F8041E00D0BFE0724804F0E8FDF2
:100450007149724819F064F80321042000F0E4FAAD
:100460000321052000F0E0FA22000121042000F021
:10047000F3FA22000121052000F0EEFA00F0ECF87A
:10048000FA20400001F056FB654B9B460AA800F09D
:1004900039FA0121002013F0DDFEFA20400001F0BE
:1004A00049FB09AA08A907A800F000F90AA90798BA
:1004B00000F05CF90AAA05000799089800F06EF9A7
:1004C0000AAA06000799099800F0CCF90400300048
:1004D00004F00CFC534904F0EEFB04F029FC02008C
:1004E0000B0004900591584604F0E2FE280004F049
:1004F000FDFB4D4904F0DFFB04F01AFC02000B0089
:1005000006004A480F0004F0D3FE200004F01EFB52
:100510000022474B04F0B5FA04000D0002000B0066
:10052000444804F0C5FE3200434902940395049BFD
:10053000059C13A8009301943B0003F09FFF4346E2
:100540001C6818F0ABFD230001CB314A01930094E5
:10055000534649461AF00AF8040018F0A9FD002C89
:1005600003D02100354804F0A3FE434613A81C68BD
:100570001AF0BCFE324A83B2206802920022039431
:10058000019200922F4913AA19F05CFE002100206D
:1005900013F060FEFA20400001F0CCFA76E72A481A
:1005A00004F03EFD20002DB03CBC90469946A2468A
:1005B000AB46F0BD254804F033FD0124F2E70124E9
:1005C000234804F075FE6442ECE7012401001B4857
:1005D00004F06EFE6442E5E71E4804F021FD013C94
:1005E000E0E7C046555300003075000004004000AD
:1005F000E0C00110ECC001100CC10110582C00200B
:10060000A4100020C0100020A010002085030010BE
:100610005B07000050C10110A086010000120020FD
:1006200098C1011000007A440000C842B0C1011016
:100630000000503FC0C10110D4C10110B4C001106E
:100640007103001010C2011044C10110F8C0011064
:10065000CCC0011018C10110F52370B5002684B07C
:1006600003AC114D2370613B637022000096923BF6
:100670007721280018F0D6FFF42323703D3B6370E8
:1006800022000096B53B7721280018F0CBFFF2231B
:100690002370EF3B637022000096013B7721280016
:1006A00018F0C0FF04B070BD00120020F0B5CE46B7
:1006B0004746F22380B52B4C89B00F002168150006
:1006C00004AA13704B0189000B4301210B435370A3
:1006D000254B060098460023772199460093404613
:1006E000023318F09FFFF42305AA21681370EF3B33
:1006F0008B400D210B4353704B46772100934046AE
:10070000023318F08FFF0F22F7236A441370F63B71
:1007100000937721404618F085FF4B4606AC0093C6
:10072000220008337721404618F0EAFF62782378E8
:1007300012011B031343A278120913433B60E378B1
:1007400022791B03120113436279120913433360A8
:10075000E3885BBA9BB22B6009B00CBC904699460B
:10076000F0BDC046C41000200012002010B50A8859
:1007700003119B1AC0105200821A5B430224085FC7
:100780001B13C012504304228A5E53439B13C018AC
:10079000830018188030001210BDC04670B51400D8
:1007A00013880A11D21AC9105B000500C91A5243F6
:1007B0000220235E1213DB124B430420215E4A43C6
:1007C00092139B18244A5B10944663449A10524338
:1007D0000A21605E511341430826A05FC9105843A7
:1007E000401009188020000284468914E088614482
:1007F0004143C91329D01026A05FD21242430E26CE
:10080000A05F43435B009B180C22A05E9B1000047A
:10081000C3181B1311485D196843114BC01816D437
:10082000400003F0CFFEC10849434B0B1622A15EE6
:10083000820859431425635F091353435B13C91896
:100840001222A35EC91809110918080070BD03F02F
:10085000B9FE4000E7E7C0460006FFFFCBF3FFFF0D
:10086000000050C330B513880C11E41AC9105B00A6
:10087000CB1A64430225515F2413C912594304253E
:10088000535F80035C431E4BA4139C4609191E242E
:10089000135F61441B05C01A2024135F80244B435F
:1008A000C31A8020C001844624026344A446222443
:1008B000107F145748436143C0126044891241437A
:1008C00080208003844689121A24105F61444843C3
:1008D000802189018C4660448013DB134343D81385
:1008E0004043127EC01150430011181AC343DB1756
:1008F0001840C8235B05984200DD1800001330BD86
:1009000000D4FEFFF0B5CE46474680B58DB005ACAD
:10091000050003AE1A220021200004F05FFA08222D
:100920000021300004F05AFA0A2288236A44137026
:100930007D3B6B449946E12349460B70E03B98466A
:10094000384F00937721380018F06CFE43462200A0
:10095000009377211933380018F0D2FE43464A46F7
:1009600000937721380018F05DFE002332000093D9
:1009700077210833380018F0C3FE2388E2782B80F3
:10098000A3781202134362796B8023791202134316
:10099000AB80E388627AEB80237A12021343E27A17
:1009A0002B81A37A12021343627B6B81237B120299
:1009B0001343E27BAB81A37B12021343627CEB8186
:1009C000237C12021343E27C2B82A37C120213438A
:1009D000627D6B82237D12021343E27DAB82A37D95
:1009E00012021343EB82637E72782B7603213378F5
:1009F000120213430F226B83B37871562B7733792E
:100A000009011A400A43EA830522B2561B09120162
:100A100013432B842223B279EA540DB00CBC9046C8
:100A20009946F0BD00120020094A830094464022F6
:100A3000634410B51C68C0006240C024144080228A
:100A4000520113431C60034B9C466044416010BD3F
:100A500004C00140004001400B4B80009C466044B4
:100A600000290DD00C210823002A00D00B000268B9
:100A700053400C221A4080235B01184302607047E8
:100A800004210023F0E7C04604C00140084B800069
:100A90009C466044002905D1C0239B0118430223D2
:100AA0000360704780239B01184302230360F8E72B
:100AB00004C00140D0231B061B6830B5002B13D1A6
:100AC0000D4D0723C40818402300800081403C33AB
:100AD0000A489B00A40019502C19002A06D1C023F3
:100AE0009B011C43216030BD054DEAE780239B013B
:100AF0001C432160F7E7C04600410140004001402F
:100B000030410140D023F0B5C6461B0698461B680D
:100B10000C4D9B001700EA5800B504000E0010426F
:100B200005D002F085F843461B689B00EA58144341
:100B300031003A000D20EC5000F062F904BC904600
:100B4000F0BDC046CC2B002010B504000D2000F0F5
:100B50003FFAD0231B061B6802499B005A58A24348
:100B60005A5010BDCC2B00200123D0228340120606
:100B700093629361094A8300944640226344196852
:100B8000C0004A40C0211140802252011343196025
:100B9000034B9C46052360444360704704C00140FA
:100BA00000400140024B18688007C00F7047C046E4
:100BB00000C00640EFF3108072B6034A1368002BA2
:100BC000FCD0BFF35F8F70472C0100D0BFF35F8F65
:100BD0000022024B1A6080F3108870472C0100D06D
:100BE000F8B5EFF3108772B60D4E3368002BFCD0CA
:100BF000BFF35F8F0725CB08C01801230D40AB4022
:100C00001D000478254007D123430370BFF35F8F95
:100C1000356087F31088F8BD100001F0F1FFC04681
:100C20002C0100D0F8B5CE4647468C4680B5EFF390
:100C3000108872B61D4D2C68002CFCD0BFF35F8F5E
:100C40009A4219D80721012511408D40D408041972
:100C5000267835421FD007218946063909E04D46DE
:100C60000F001540AF40D408041926783D003742E4
:100C700011D001329342F2D201204042BFF35F8F84
:100C800000220A4B1A6088F31088002807DB0CBC8E
:100C900090469946F8BD354325701000EEE763464F
:100CA000002BF4D0089801F0ABFFC0462C0100D017
:100CB00030B5EFF3108572B60A4C2368002BFCD0D8
:100CC000BFF35F8FCB08C0180723012219408A4069
:100CD000037893430370BFF35F8F0023236085F392
:100CE000108830BD2C0100D00021044B044ABFF312
:100CF0005F8F02C39342FAD17047C046000100D013
:100D0000800100D0044A1078431CDBB2172B00D9B5
:100D1000102313707047C046C810002000B5054B63
:100D200083B00100009318221F230348FFF77AFFC6
:100D300003B000BDCCC20110F82100200123834084
:100D4000002902D1034A13607047034A1360034A23
:100D50001360F9E780E100E080E200E000E100E0FC
:100D600001238340014A13607047C04600E200E05F
:100D7000084B10309B688000C358002B07D0064AF0
:100D800000209B1A2F229A424041C0B27047002097
:100D9000FCE7C04600ED00E0CC100020024B103014
:100DA0009B688000C058704700ED00E070B50D00F2
:100DB000EFF3108672B60F4A1368002BFCD0BFF316
:100DC0005F8F0D4B10309B6884001B590B4A934278
:100DD00003D09D4201D001F02BFF074B9B681D51B2
:100DE000BFF35F8FBFF35F8F0022024B1A6086F361
:100DF000108870BD240100D000ED00E0CD0100108E
:100E0000F0B557464546DE464E46E0B5804683B0CF
:100E10008A461700EFF3108972B6604A1368002BF8
:100E2000FCD0BFF35F8F5E4B9B461B785BB2019398
:100E3000002B00DAAAE09C465A465C00594D6444F7
:100E4000A4002E19B3791370574B9A684346103398
:100E50009B00D15898464B1B2F2B2DD9534B9942B1
:100E600001D001F0E5FE524B02343380514B2D1975
:100E7000043B5D1B2D05504B6D0D1D434F4B012158
:100E8000B380FF23B37153467580F771B36031436C
:100E90004246454B9B689950BFF35F8FBFF35F8F0E
:100EA00000223E4B1A6089F3108803B03CBC904688
:100EB0009946A246AB46F0BD01230A009A43D37976
:100EC0009446BB423DD906201056002805DA20E0A2
:100ED000062018561A0000281BDB43001B189B0035
:100EE000EB18D879B842F3D8002A2AD00620105639
:100EF000131D9C4600280EDB04342D19E024938832
:100F000024025B051B1563445B1B1B055B0D234320
:100F100002E0131D9C462A4B6546341F641B2405C2
:100F2000254D640D2C4394806C4624799471B380D4
:100F30005346244AB0713280813A7280F771B360AF
:100F4000A6E7214A63465B1B5B415A43120D184BCF
:100F5000A11C3380174B6918043B5B1A1B0516490B
:100F60005B0D0B43738063460434043B2D195D1BFA
:100F70002D0553466D0D2943B180B27101216246A2
:100F8000B360124BF7713143136081E701F050FEFB
:100F90005B461B785BB201934DE7C046240100D04D
:100FA0004D2C0020CC10002000ED00E0CD01001001
:100FB00000A1FFFFFC10002000E0FFFF01BDFFFFCC
:100FC00001BD000001480000AAAA000001488047B6
:100FD000F0B5DE4657464E464546E0B50C0083B0B8
:100FE000EFF3108A72B6584A1368002BFCD0BFF397
:100FF0005F8F0200554B10329B6891005E58544B36
:10100000884699469E425CD0A64200D172E0514D7E
:10101000731B2F2B55D8012787404F4B1B683B4034
:1010200001934E4B1F60BFF35F8FEFF305839B4629
:10103000002B03D09A4201D001F0FAFD01233200C7
:101040009A4393689C4200D16BE0062151560029D7
:1010500005DA31E0062159561A0000292CDB4B0035
:101060005B189B00EB1899688C42F3D10621595606
:10107000002941DB4A00501880002C188146A068E6
:101080009860E079D871062020569871A0797F2861
:1010900045D8A488E81A640524154C440019E024B6
:1010A0000005400D24022043988052182C4B9200DA
:1010B000AD181A781970AA71019B002B15D1274B16
:1010C0001F604246214B9B689E50BFF35F8FBFF36A
:1010D0005F8F00221C4B1A608AF3108803B03CBC5F
:1010E00090469946A246AB46F0BD1E4B1F601A4B78
:1010F0001F60E6E71E00E4E75946002914D1002AE4
:101100001FD0FF3191711849918015490A789A7161
:10111000164A5B1B5B415A43120D0A70CCE7144818
:10112000C2E713000022A1E7124A1349D21A083A73
:101130005002400D01439980104952080A43DA8059
:10114000BAE74E46E1E7C046240100D000ED00E0DA
:10115000CD010010CC10002000E100E080E100E0B3
:101160004D2C002080E200E001BDFFFFAAAA000094
:1011700001BD00000611002000F0FFFF00F8FFFF96
:10118000032310B50400074A18409446C0009C434E
:10119000FC3383408140644422689A4311432160B8
:1011A00010BDC04600E400E0F0B5EFF30581012476
:1011B0000443EFF3108672B6214A1368002BFCD06B
:1011C000BFF35F8F1F4A204B0500AD1A6D416B4383
:1011D0001B0D1E4D8900AF685BB27F58BC4226D004
:1011E00006215156994226D012215156994224D0B7
:1011F0001E215156994210D02A215156032499425A
:101200000CD0134A117813708171BFF35F8F0022E5
:101210000B4B1A6086F31088F0BD02246100091997
:1012200089005218FF2191710A499180E9E7AA6863
:10123000094C5450E5E70024F0E70124EEE7C046EE
:10124000240100D0CC100020AAAA000000ED00E08C
:101250004D2C002001BDFFFFCD010010084B094AB5
:101260001360094A1360094A1360094A1360094A66
:101270001360094A1360094A1360094A13607047F2
:101280008080808000E400E004E400E008E400E006
:101290000CE400E010E400E014E400E018E400E0F6
:1012A0001CE400E01F2110B5091A0248FFF700FDF9
:1012B00010BDC046572C002000B5074B83B001007D
:1012C0000093002205230548FFF7ACFC002801DB52
:1012D0001F23181A03B000BDE8C20110572C0020CC
:1012E00070B504000E001500FFF70CFD0100200092
:1012F00000F006F8A680E580BFF35F8F70BDC046A2
:10130000024B9C46614489000160704740000034F4
:1013100010B50400FFF7F6FC01002000FFF7F0FF16
:10132000FF232371BFF35F8F10BDC04610B50400CB
:10133000FFF7E8FC01002000FFF7E2FFFF23237125
:1013400000236371BFF35F8F10BDC04610B504006A
:101350000120FFF7E3FC044B9C46604480002060C2
:10136000BFF35F8F10BDC04640000034034B9C4666
:10137000614489000160BFF35F8F70474000003413
:1013800083680B4810B58446614462440901120128
:101390009A18591854684B6801209C4201D802D011
:1013A0000020C0B210BD12680B689A42F9D8F7E766
:1013B000FFFFFF0F0A4B1968EFF3108072B60A683F
:1013C000002AFCD0BFF35F8F1B68BFF35F8F002242
:1013D0001A6080F3108840BF002000217047C0468B
:1013E000F02B0020F8B54E464546DE465746E0B5A0
:1013F0001F000CAB1D780DAB1B7881469B46036824
:1014000016009846002D08D1987B002841D13CBC9D
:1014100090469946A246AB46F8BD28006C00641978
:10142000033C384B00229C464B469B6860449C46DC
:1014300000010A9B604483600B9B06604760C360A9
:1014400043461B681B199A705A701A7043465B7B9F
:101450009A46002B3BD043462A00986851465B6869
:10146000984743461A68002824D053465B005344EB
:10147000033BD31814195246A2701A78002A00D0E0
:1014800062701D705246434628005A73AA45BED169
:101490001FE0414644001B682418033C1B195A787E
:1014A0008A73002A00D1CA73002205009A705A700C
:1014B0001A70B6E753465B005344033BD318141924
:1014C0009D702278002A00D05A70534623704346FC
:1014D0005D734B463200187D3B0000F02BFD041E6F
:1014E00007D05B46002B04D14B462900186800F05A
:1014F0003DFF0E9B002B02D01C70280087E72800C0
:1015000085E7C046FFFFFF0FF0B5DE46454657466C
:101510004E466A4B8200E0B5D55800239B468BB0FF
:10152000099000F07BFC6A68EFF3108472B61368D0
:10153000002BFCD0BFF35F8F2B689C465B7B9946EA
:10154000002B00D17EE0AA685D4B90464B441B0106
:10155000984443461E685F6832003B00121A8B4174
:10156000002B00DC82E032003B00099800F0E2FC36
:1015700000230022984600230692079300239A46F0
:101580006B68BFF35F8F5A461A6084F31088534626
:10159000002B61D0089B414618024B461843D047A8
:1015A0006A6806000F00EFF3108472B61368002B10
:1015B000FCD0BFF35F8F002F22DA2B69002B25D0E0
:1015C000069A079B921BBB41002B02DA01223D4B7E
:1015D00052425946049101210391494602914146E4
:1015E0000191514628000091FFF7FCFE5B462B61FC
:1015F0006B68BFF35F8F5A461A6084F3108890E7D8
:1016000033003B4302D02B69002B4DD12B68DA7B92
:10161000002A07D051008A1819688C46494662444E
:10162000033A51709A7B002A01D14A469A734A467E
:10163000DA73EA684B469446013B63441A780132F8
:101640001A70D3E7002300229846002306920793DE
:10165000002300209A4693E7002800D061E70BB0F2
:101660003CBC90469946A246AB46F0BD002B02D149
:10167000002A00D077E70021604600F0CDFD434608
:101680001A685B680692079343469B689A464346EE
:10169000DB689846EB684B44013B1B7808931B02C0
:1016A0001843286100206BE700F0B8FB32003B00D4
:1016B00012184B41002B00DA88E78AE7B42B002090
:1016C000FFFFFF0FFFFFFF7F10B5144C6368002B77
:1016D00004D00A211248FFF713FE10BD2300114A5F
:1016E0001021206800F07AFD032000F08BFB03201E
:1016F00000F08EFC0C49032000F0D6FBFFF702FB44
:101700000A4B9C4603232375D0231B061B686044A9
:101710006375074B80006060DC60DAE7141100201D
:10172000F02B002081130010091500104000003438
:10173000B42B00200048704714110020F0B5574624
:10174000DE4645464E46E0B585B00092019310ABAB
:101750001B7807009B4600239A4698467A68EFF369
:10176000108972B61368002BFCD0BFF35F8F3E6800
:10177000B47B002C00D173E065002D193368033D64
:101780005B195A78B273002A00D1F27342469A70FC
:101790005A701A70BA684C4B94460099019AE31833
:1017A0001B01634419605A600E9A9A600F9ADA60BE
:1017B000424633685B199A705A701A70737B0393B0
:1017C000002B00D16EE0190073682200B0689C46BF
:1017D000E0473268002856D00398551984464300E4
:1017E0006344033BD318A8701A78002A00D067E03E
:1017F0001C707073844256D0FB681B19013B18782B
:101800007B68BFF35F8F42461A6089F310885346A6
:10181000002B08D10002204305B03CBC90469946FD
:10182000A246AB46F0BD5B46002B4BD00E9B0F99FA
:1018300000209847030004000D000B4342D000290C
:1018400017DA009A019B121BAB4100920193002B07
:1018500004DA01231D4C5B4200930194DA467DE7D4
:101860007B68BFF35F8F1C6089F3108801204042C2
:10187000D2E700F0D3FA24184D4100940195002DD1
:10188000E7DBDA466AE7039955198C464B00634457
:10189000033BD3189C702A78002A00D05A706B46FC
:1018A0001B7B2B707473387D009A019B00F042FB08
:1018B00082460028A0D02100386800F057FD9BE741
:1018C0006A7095E70020A7E7FFFFFF0FFFFFFF7F8C
:1018D00070B504000020002923D06268EFF3108562
:1018E00072B61368002BFCD0BFF35F8F2068CEB2B6
:1018F000437BB34216D0FF230B405A00D318026833
:1019000094466344033B9B78002B0BD122699142A0
:1019100017D000206368BFF35F8F00221A6085F341
:10192000108870BDFF230A0A0B40E168D2B28C46D2
:101930006344013B19789142EBD1310000F016FD70
:10194000E8E72361E5E7C046407D7047F0B55746BC
:101950004E464546DE460400E0B50D0006267642BA
:10196000F71736196F4185B08F4255D852D000F025
:1019700055FA32003B00121A8B41002B56DD684BA2
:101980009A465A68EFF3108B72B61368002BFCD09E
:10199000BFF35F8F53461B6899469B7B9846002B8D
:1019A0004AD153465B68BFF35F8F00221A608BF306
:1019B00010884346002B11D0BC46B04600940195D8
:1019C00000266546574F584A7B6AAB4211D3B96A25
:1019D000414501D2AB420CD0009C019D2000290062
:1019E00000F052FA05B03CBC90469946A246AB4680
:1019F000F0BD1168EFF3108072B60B68002BFCD0BD
:101A0000BFF35F8F1368BFF35F8F1E6080F3108892
:101A100020BFD9E78642AAD90026002700F0FEF9A8
:101A200032003B00121A8B41002BA8DC002BD5D1D1
:101A3000002A00D0A3E7D1E75B0043444A46033BBA
:101A40009C46494612680093624453788B73002B7E
:101A500000D1CB7300235146937053701370896883
:101A6000324A8C4642443249120162441660576041
:101A70009160D36000994A468C4612686244937024
:101A8000537013704B465B7B0393002B35D01900CA
:101A900048464B46424680685B689847002819D004
:101AA0000398009984464A46430063448C4669463D
:101AB0001268097B033BD31862449170197800299E
:101AC00000D0517042461A704B465873804500D082
:101AD00067E715E04B4603981A688446009BD118C7
:101AE00043006344033BD31842469A700A78002AA5
:101AF00000D05A706B461B7B0B704B4642465A73A4
:101B000053463200187D3B0000F014FA002800D143
:101B100047E753464146186800F028FC41E7C046B5
:101B20001411002000400540F02B0020FFFFFF0FA4
:101B3000B513001070B5060000F070F9FA22040029
:101B40000D00920000233000002103F091F80019ED
:101B50006941002902DA012002494042FFF7F6FEFE
:101B600070BDC046FFFFFF7FF0B5EFF3058357461A
:101B7000DE464E464546E0B50C0083B00700002B1C
:101B800017D00021724A8846536A9C4209D8012125
:101B9000926A8846BA4204D2E41A631E9C41E3B2B8
:101BA0009846404603B03CBC90469946A246AB4698
:101BB000F0BD684D6A68EFF3108A72B61368002BA7
:101BC000FCD0BFF35F8F2B689E7B9846002E3FD1E1
:101BD0000023984601936A68BFF35F8F002111606C
:101BE0008AF31088002E00D17DE04246002A00D002
:101BF00079E0019A1B02134320BF6968EFF3108953
:101C000072B60A68002AFCD0BFF35F8F2868D9B289
:101C1000427B8A426FD0FF221A405600B2460668C5
:101C20009244B44656466644033EB678002E64D1CC
:101C30002A69934200D188E06B68BFF35F8F00226E
:101C40001A6089F31088424A536A9C42A9D89EE7D9
:101C500073009B19033B9946434641461B68019616
:101C60004B445A788A73002A00D1CA7300229A70B2
:101C70005A701A70A968384B8C46F3181B01374903
:101C800063441F60DA605C60996043461B684B44A4
:101C90009A705A701A7043465B7B9B46002B45D066
:101CA00019004346320098685B68984743461A68B3
:101CB00000282DD05B4659465B005B44033BD3189C
:101CC0004A4491701978002900D051701E705A460C
:101CD00043465A735E452BD000239846EB689B1908
:101CE000013B1B7877E71A4A536A9C4200D84EE7BB
:101CF0000023984655E7FF221A40EE681B0AB446B7
:101D00006244013A12789A4296D100F02FFB93E791
:101D10004B46D1185B465B005B44033BD3189E7077
:101D20000A78002A00D05A705B460B7043465E73F7
:101D3000287D3A00230000F0FDF880460028CBD033
:101D40003100286800F012FBC8E72E6174E7C04636
:101D50000040054014110020FFFFFF0FB5130010D5
:101D6000F8B5EFF30583CE464746180080B5103826
:101D7000EFF3108C72B61C490A68002AFCD0BFF33E
:101D80005F8F0124220082401849194E72630A6055
:101D900018490D7889462900C140884647460021E8
:101DA0003C420BD0746A144EA0468400A659B0453C
:101DB00012D3124B9543E1584B461D70BFF35F8F12
:101DC0000022094B1A608CF31088002900D0884744
:101DD0000CBC90469946F8BD094A9B009046434486
:101DE0001A681A60EAE7C046280100D03C70054036
:101DF00000400540562C0020FC2B0020C81F00206E
:101E0000D03F054010B50100024A0348FEF7E8FE46
:101E100010BDC04610C30110472C0020044A516A6F
:101E200000E01900906A536A9942FAD17047C0469F
:101E300000400540134A30B5546A00E01C00956A22
:101E4000536AA342FAD12A002300801859418C42D8
:101E500011D80ED00C000B4A536AA342FCD307D111
:101E6000084A02E0516A994202D1916A8142F9D34B
:101E700030BD8542EED9012401204042C1176442A1
:101E8000E9E7C04600400540064A536A9942FCD83B
:101E900007D1044B02E05A6A914202D19A6A824207
:101EA000F9D370470040054070B504000D00EFF312
:101EB000108672B61A4A1368002BFCD0BFF35F8FEE
:101EC000002D1BD02000FEF769FF164988420AD07A
:101ED0002000FEF76BFF01212000FEF72FFF0123FA
:101EE000A340114A1360114BA400E550BFF35F8F6C
:101EF00000220B4B1A6086F3108870BD0B4BA200BA
:101F0000D5500122A2400A4920000B7893430B7060
:101F10000449FFF75DF800212000FEF70FFFE5E719
:101F2000280100D0611D001038600540C81F002046
:101F3000562C0020F0B5D6464F4646462F4CC0B52D
:101F4000656A00E00D00A66A616AA942FAD1AB4257
:101F500049D9EFF3108972B6294C21680029FCD0C9
:101F6000BFF35F8F0126274986408C460978264DAE
:101F70000F0037438846F9B28A46614654460C70D2
:101F80001E49041DA4004E636250840063510D6A13
:101F9000002435421AD04D6A00E025008F6A4C6A51
:101FA000AC42FAD1AB4224D801D1BA4221D8D045B3
:101FB00021D0124B154A1E625E631F2318401E3B40
:101FC000834013606346424601241A70BFF35F8F5B
:101FD00000220B4B1A6089F3108820001CBC90462D
:101FE0009946A246F0BDAB4201D1B242B1D801241C
:101FF000F3E70024EAE70124E8E7C0460040054093
:10200000280100D0562C0020FC2B002080E200E0AC
:1020100010B5EFF3108472B60A490B68002BFCD0A0
:10202000BFF35F8F01238340074A08481362027899
:102030009A430270BFF35F8F00230B6084F3108814
:1020400010BDC046280100D000400540562C00209D
:10205000F8B54E464546DE465746E0B54C00641896
:102060000368033C1A190D005178060089460029BF
:1020700006D128003CBC90469946A246AB46F8BD26
:102080004F004F44033FD8194178884600214170E2
:102090005170002D12D073684A462900B0689847E5
:1020A0003368002873D0DF191A19BD701178002920
:1020B00000D0797049462700117000E04D46424635
:1020C000002AD6D054004444033C1A19517889465A
:1020D000002911D1736842462900B06898473368D7
:1020E000002849D01C19DF19A5703B78002B00D0BF
:1020F000637043463B70BCE74900494403398A4654
:10210000534459788B4600215970517073684A4680
:102110004146B06898473368002843D152461C199D
:102120009A184B46A3701378002B00D06370434677
:102130005446C84613705B46002BCBD0594630003E
:10214000FFF786FF81460028C4D002004146B068F0
:1021500073689847326800282FD04B465B004B4489
:10216000033B1119D31842469A700A78002A00D00E
:102170005A704B460B70ADE71C19DF194346BB7014
:102180002378002B00D07B702570454671E74946C7
:102190001C19DA19A1701178002900D0617015702E
:1021A0004D468CE741461A1953449970117800291D
:1021B00000D059704B461370BDE74B465B004B4453
:1021C000033BD11814194A46A2700A78002A00D09D
:1021D000627042461C000A70C8467BE710B58360F7
:1021E0000023CCB243730133047342608373C4731E
:1021F0000068012C07D90123421C0133DBB21370A4
:1022000003329C42F9D8FF2319404B005918002390
:1022100040180338437010BDF0B54E46574645464A
:10222000DE46E0B5477B03687D00ED19033D5A1992
:10223000167883B004008946002E22D1002915D0DB
:10224000E07B002804D041000918591803394F7069
:10225000A17B002900D1A773E773002E06D071007F
:1022600089190339884600214344997000233800B6
:102270005370667303B03CBC90469946A246AB4689
:10228000F0BD71008919033988465918487882468B
:10229000002803D149460029E5D0D1E74200524445
:1022A000033A9446019263445A78934600225A7046
:1022B0004A70636852463100A06898472368002836
:1022C00045D0414601985A1819188E701078002888
:1022D00023D1514611705A46002A21D05946200078
:1022E000FFF7B6FE8246002819D00200636831006D
:1022F000A06898472368002814D04246991852468F
:1023000052005244033A9A1896700878002800D078
:10231000507052460A705A19BCE74870D9E72368D2
:102320005A19B7E752465100514403395A184046EA
:1023300093465246181882705A461278002A00D0E6
:1023400042705A46884616705A195646A2E74146C8
:102350005046019A59189A1888701078002800D0B1
:1023600048701670019A56469046B4E7F0B5454657
:10237000DE4657464E46E0B50C00050083B000200F
:10238000002940D06B7B9846994200D1B4E04E00C2
:1023900076182A68033E91198F78002F33D07B007E
:1023A000DB19033BD3181878844202D1A1E000283E
:1023B00008D043001B18033BD31858788442F6D149
:1023C0004878587000230F789C468B704B70002F14
:1023D00041D1E87B002804D043001B18D318033BED
:1023E0005C70AB7B002B15D0EC73002F16D0002354
:1023F0007C00E419033C121993704B704346002B88
:1024000011D101206F7303B03CBC90469946A2469F
:10241000AB46F0BDAC73EC73002FE8D14F7047466C
:1024200001206F73EFE73A004146A8686B68984750
:102430002A68002800D185E043465B004344033B03
:10244000D31814194246A2701A78002A00D062707C
:102450001F704746D5E77800C01903388146101829
:1024600043789A46002BB4D059005144CB1E98466D
:102470004244537839009B4663465370437052463A
:10248000A8686B6898472A68002800D1C4E04146D4
:102490004B465118D3188F701878002800D0487018
:1024A0005146C84619705B46002B1ED0594628007D
:1024B000FFF7CEFD8146002800D195E002003900EB
:1024C000A8686B6898472A68002800D191E04346C5
:1024D000D1184B465B004B44033BD3189F700878E0
:1024E000002800D058704B460B706B7B91199846B2
:1024F0006FE74878187065E7424656002B684644F7
:10250000033E99190C78002C2AD1E87B002805D0CD
:102510004200121840469A18033A5070AA7B002ACB
:1025200001D14246AA734246EA73002C05D06200EC
:1025300012199B180022033B9A70002301204B7054
:102540006C7360E743465B004344033BD3181419A4
:102550009F702278002A00D05A704346237050E7BB
:1025600067003F19FA1E01929A185778BA46002F51
:10257000CBD079005144033989464B44597858707F
:1025800050706B688B463A002100A86898472B680A
:10259000002860D04946019F5918DA198C701078CC
:1025A000002865D15146B94611705A46002A19D003
:1025B00059462800FFF74CFD071E3AD002006B6811
:1025C0002100A86898472B68002835D04A469918FA
:1025D0007A00D219033A9A1894700878002800D02B
:1025E00050700F70991990E76B7B2A689846911983
:1025F000EFE64B4659004346484649440339D31851
:10260000511898700878002800D058700F706B7BB4
:10261000911998464F46DCE64346D1184B46504642
:10262000D31898700878002800D058700F7057465B
:1026300039E72B68991968E74A467900C9190339BF
:102640009A18591897700878002800D050700C70AC
:1026500099193C0059E701994A465F1851469A1862
:10266000B9701178002900D07970147054469CE735
:10267000487051461170019A914696E730B50C208A
:1026800083B000F0BDF9FEF78DFA00280ED09B4B09
:102690009B4A1A605A609A60DA601A615A619A61BC
:1026A000DA611A62974A5A6203B030BD964CA0674D
:1026B00000F0F8F90122954B1A60636C012BFCD1F4
:1026C0000322934B1A60904A936B012BFCD1013388
:1026D0000093904A043301218F4800F043F9052309
:1026E0008E4A009301218E4800F03CF98D4B5A68C8
:1026F000FF2A02D8802252005A6080227F4C844BED
:1027000021691201874D1A60002900D0EDE0E02117
:10271000844B02201A681140802252012A43116022
:102720001968484003210140116004219A68114250
:10273000FCD08022802192012A430901116080226D
:1027400052005A60784B2361784B5968FF2900D8B2
:10275000C9E003226D4B75481A60012103009A6895
:102760001142FCD0E0251A68154080225201024334
:1027700015601B684B4003211940116002216B4A10
:1027800093681942FCD0802380219B0103430901F7
:1027900019608021664B490051606361654B5A683E
:1027A000FF2A00D859608022634BE1691201614D14
:1027B0001A60002907D0606901F004FF431C58002B
:1027C000C0180338FDD2E0225A490B681A40802312
:1027D0005B012B431A60802380229B012B43120153
:1027E0001A608022464B52004A60E361534B59689D
:1027F000FF2900D85A608022514B216A12014F4DA7
:102800001A60002907D0606901F0DCFE431C580003
:10281000C0180338FDD2E02248490B681A408023D3
:102820005B012B431A60802380229B012B43120102
:102830001A6080235B004B60314B424A2362424B5B
:102840005968914201D801325A6080223F4B616A37
:1028500012013D4D1A60002907D0606901F0B2FEF7
:10286000431C5800C0180338FDD2E02236490B68DB
:102870001A4080235B012B431A60802380229B0136
:102880002B4312011A608023DB024B601D4B6362F5
:102890002F4B5A68FF2A02D8802252005A608022A9
:1028A0002C4BA16912012A4D1A60002907D06069DA
:1028B00001F088FE431C5800C0180338FDD2E02206
:1028C00023490B681A4080235B012B431A60802345
:1028D00080229B012B4312011A6080235B004B6016
:1028E000134BA361E0E65A6033E7606901F06AFECA
:1028F000431C5800C0180338FDD208E7FC21002013
:10290000006CDC021BB70000008000403CB00040BF
:1029100030B00040002F685900800240008C86478C
:1029200000C0024030800040001BB7003C800040E7
:10293000405973075480004054B00040608000400C
:1029400060B00040FFFF03006C8000406CB00040AE
:102950004880004048B00040014B8000C05870479C
:10296000FC210020F8B50400204817001D000E00CF
:1029700001F028FE0100380001F024FE069A2B0425
:10298000120313432268002A1CDB194A8021944257
:1029900029D04901174A184D1160184A11600F00DB
:1029A000AA689743FBD1C021221D8901114321222E
:1029B0002660A0600A602268002AFCDAE36008232F
:1029C0000B60F8BD3F2221680A409642DDD1A26823
:1029D0001205120D9042D8D1EE21E268C9020A40D8
:1029E0009342D2D1EDE78901D4E7C046001BB7007E
:1029F00000C0024000E0004000C0004000F0004085
:102A000080239B001843014BD8627047008005402B
:102A100010B580241A4BE4051C6000281AD001234D
:102A2000184C1843184BDC61184C44401C62596226
:102A300098628021124BC905196015481549086034
:102A4000E021C9041960002A07D18022124B120626
:102A50001A6010BD0C4BD861EBE7FA23DB005A4338
:102A60000E4B9A4208D80E4B1A60074B5A608022D0
:102A7000094BD2051A60ECE7094A13601A00F4E723
:102A800000B00540D3C007B0008005402D3FF84F8F
:102A9000FCFF01000820014000A00540FFFFFF00EF
:102AA0007C2B0020AA23064A1B0113602F23054913
:102AB000D360054B19605368002BFCDA7047C046A1
:102AC0000040024000B0FA00006002402D4A2E4B48
:102AD00070B51A602D4A2E4B2E491A6010008B6873
:102AE0009843FBD12C4E2D4B9E420AD2F543002435
:102AF000ED18AD080135A300F35801349847AC42F6
:102B0000F9D1FFF7BBFD264A214B1A60214A936891
:102B1000DB018033FBD14022224B234C234D9A67AB
:102B20005A671A67DA66AC4208D223682000002B85
:102B300022D00834FEF7FAFBAC42F6D31C4D1D4CF4
:102B4000C022A168280002F04FF9A560FEF7CCF87A
:102B5000FEF784FBFEF7B8FD174E184B9E420AD2D3
:102B6000F5430024ED18AD080135A300F3580134F6
:102B70009847A542F9D170BD0834FEF7C9FBAC42B5
:102B8000D3D3DBE7BFCDFBFE00E00040FE7F3C007F
:102B900000F0004000C00040581A0020681A0020D1
:102BA000FFFFFF0100F00140501A0020581A0020DA
:102BB0000000002000ED00E0681A0020701A0020DC
:102BC00000BEFDE7094A1368002B06D00849181813
:102BD000884208D8106018007047064B044918183E
:102BE00013608842F6D901204042F5E760270020B3
:102BF0000000042038E2002010B5FFF7E1FFC046D6
:102C00000FB400B5084883B002F00AFA049B002B09
:102C100007D005A91800019101F054FC034802F007
:102C2000FFF90120FFF7CCFF40C30110A45A0510A3
:102C300010B50148FFF7E4FF34C301109A4200D2F7
:102C4000885470477047C04610B5002803D04A68C2
:102C50000B681100984710BD10B5002800D110BDB9
:102C60000B4B1C68A2689368013B9360002B04DB4C
:102C70001368591C11601870F1E791698B4201DBF0
:102C80000A28F5D10100200018F0ACFBE7E7C046A8
:102C900010120020F0B54546DE4657464E46E0B5D8
:102CA00083B099460EAB1D78119B88469B46022344
:102CB000129900920B4007000D9C109A0193002B73
:102CC00028D15B46002B00D092E0944222D201260C
:102CD0000E401F2C1ED80C9B30201B1902E0013324
:102CE000202C03D001341870A242F8D8002E11D045
:102CF000A3450FD90C9B30201B195E461F2C04D90D
:102D000087E00133202C00D1A7E001341870B442D1
:102D1000F7D1A346CB0611D54B0502D4002C00D029
:102D20007CE00F9B102B00D1A0E0022B00D1A7E08C
:102D30001F2C11D830230C9A135501341F2C0BD89B
:102D4000002D00D079E04B0700D588E00B0733D584
:102D500020230C9A135501348B0730D0009E250098
:102D6000A24632004446B0460C9B013D561C585DBD
:102D700021004B46B8473200002DF5D14646A0460B
:102D800054463619019B002B0ED0009D731B5B45EA
:102D90000AD23200444601364B4621002020B84773
:102DA0003200731B5B45F6D3300003B03CBC904649
:102DB0009946A246AB46F0BD009E8B0715D15C45F7
:102DC0006ED2009A0D9413005B441D1B0D9B44466C
:102DD0009846561C4B4621002020B8473200B54289
:102DE000F7D14346A0461C000D93002CB7D1C9E78C
:102DF00001260E4028D0002D2AD10C230B4227D1CA
:102E0000944200D374E71F2C00D864E7A34500D890
:102E100080E7CB06A0D54B0500D582E7A24202D0C1
:102E20005C4500D07DE7631E002B3BD00F9A023C2F
:102E3000102A1BD01C00130077E72D230C9A135582
:102E400001348B07BBD089E7944200D241E761E7A8
:102E500001235B429C46E344D2E7B346D9E72B23E8
:102E60000C9A135501348B07A9D077E78B060FD442
:102E70001F2C00D970E778230C9A1355013457E7BB
:102E80001F2C00D968E70C9A6033135501344FE7C3
:102E90001F2C00D960E758230C9A1355013447E7DB
:102EA000009EA2E700243CE7F0B5DE4657464E46BA
:102EB0004546E0B597B005000E0093461F00209AE6
:102EC000219B1000190001F02EFE002800D0D5E251
:102ED000209821990122BD4B524201F011FE002899
:102EE00000D081E1209821990122B94B524201F092
:102EF00015FE002800D017E1209821990022B54B3B
:102F000001F00CFE002800D0BCE12098219900229D
:102F1000B14B01F0F5FD002800D0B3E120982199D4
:102F20000022002301F0ECFD002800D054E2002331
:102F30000D938023249ADB001A40914600D007E2CB
:102F40000023A64C0893099406240EAB07932098FF
:102F5000219901F013FE80460C9001F0F7FD02006C
:102F60000B002098219901F068FD089A099B01F057
:102F700088FD0A900B9101F025FE824601F0E2FDEA
:102F800002000B000A980B9901F057FD0022944BA8
:102F90000A900B9101F0C2FD002800D1C5E1012388
:102FA0009C46E244504601F0CDFD089A099B01F091
:102FB000ADFD002800D030E2002C00D074E10C9C64
:102FC000200001F0C3FD02000B002098219901F0C0
:102FD00034FD0022824B0890099101F091FD0028F8
:102FE00000D10AE24B46202B00D196E15C1C0C9BE1
:102FF0000A211800984601F0BDFA4A46079B303175
:10300000995440460A2101F0B5FA079B804699463B
:10301000A14400281BD02A00330025004E46444618
:1030200099469046202D00D125E220000A2101F08A
:10303000A1FA3031317020000A2101F09BFA0135EC
:10304000040001360028EDD12C004E4645460323EE
:10305000249A1340012B00D19BE120229246202C80
:103060000CD00D9A002A00D0C1E1249A520700D456
:103070004CE2621C92462B2207990A555A46089246
:10308000002B17D1239B9A4500D34FE25B441C00D1
:103090005346E41AB84637002E002500541C434618
:1030A00039002020B0472200AC42F7D135003E0065
:1030B0004746089453465C1E079B08AA9C46172364
:1030C000644494466344B946984637002E00089AF3
:1030D000551C20784B463900013CB0472A00A045DA
:1030E000F6D1089B350053441C00249B3E009B07EF
:1030F00012D55B46239AE31A9A420DD91300C846AB
:1031000022005F4699460134434631002020A847FB
:103110002200E31B9945F6D8200017B03CBC90462E
:103120009946A246AB46F0BD249B5B0700D5A4E0C0
:103130002C4B9A4603230793249BD8469B0719D10F
:10314000079B23998B4200D3ECE15A469B1A984681
:10315000239B99463B0031002020541CA84743463E
:103160001B1922009945F5D8239B5B441C00079B43
:10317000E31A9846B14642465646BA462F00079C87
:10318000013C551C305D53464946B8472A00002C87
:10319000F6D1079B3D0043441C00249B4E469B07F1
:1031A000BAD55B46239AE31A9A42B5D91300D046A2
:1031B00022005F4699460134434631002020A8474B
:1031C0002200E31B9945F6D8A6E7C046FFFFEFFFB4
:1031D000FFFFEF7F65CDCD4165CDCDC180842E4110
:1031E0000000E03F38C50110249BD8469B0716D14C
:1031F000239B042B00D897E11C1F5C44B8465A4619
:1032000037002E002500541C434639002020B047CB
:103210002200AC42F7D135003E004746A046CE4BD7
:10322000B9464246370004249A462E005346013CD4
:10323000551C185D39004B46B0472A00002CF5D1CB
:103240004446249B350004343E009B0700D463E7CA
:103250005B46239AE31A9A4200D85DE71300C846FA
:1032600022005F4699460134434631002020A8479A
:103270002200E31B9945F6D84EE7B84B9A46042343
:10328000079359E7249B5A460493239B31000393E9
:10329000229B28000293209B219C009301943B00D9
:1032A00000F064F9040037E74B46202B35D0631E4D
:1032B00098464B460A2150465C1C01F083F94A4669
:1032C000079B3031995450460A2101F07BF9814621
:1032D000002800D1B6E0079B9A463B00A24447462F
:1032E000A84625004C46B14656469A4610E02000B6
:1032F0000A2101F067F93031317020000A2101F014
:1033000061F9013F013504000136002800D194E045
:10331000202DECD145464E4657460323249A1340B0
:10332000012B35D020229246A8E600220A980B995C
:103330008B4B01F0E5FB002800D03DE65346002B07
:1033400002D0DB0700D437E601239C46E24433E693
:10335000229B092B00D8F2E00122302391460EA8CF
:103360000370229B07905C1E2F32093B494604E004
:1033700042540131013C202901D08B42F8D1794BD4
:10338000E2009B181A685B68894608920993DEE59B
:103390002024239B002B47D00D9B002B03D1249A84
:1033A0000C33134202D0239B013B2393239BA34264
:1033B0003AD9202C00D1BDE0302221001800079B13
:1033C0001B1901311A7088422DD001332029F8D100
:1033D0005B468A4608936DE6209A219B00200021D7
:1033E00001F02BFB0123209021910D93A1E5621C9C
:1033F00092462D2207990A5540E60022089809991D
:10340000574B01F08BFB002800D0EBE50123A446CD
:1034100023409C4463460C93E4E5434601330C93FC
:1034200000239A46C8E5239C0123202C00D018E6EF
:103430001F339A465B4608933CE62C004E464546B1
:10344000B8465746202C00D167E742464046079BC6
:1034500011191B193022002807D001341A70202CB2
:1034600000D15AE701338C42F7D1631C99462E23D1
:10347000079A1355B6E545464E464EE7249BD84677
:103480009B0715D1239B032B52D9DC1E5C44B84605
:103490005A4637002E002500541C43463900202090
:1034A000B0472200AC42F7D135003E004746A04667
:1034B0002D4BB9464246370003249A462E00534608
:1034C000013C551C185D39004B46B0472A00002CC2
:1034D000F5D14446249B350003343E009B0700D4BD
:1034E0001AE65B46239AE31A934200D314E61300CC
:1034F000C84622005F4699460134434631002020E9
:10350000A8472200E31B9945F6D805E6249AA2466F
:10351000120700D4B2E50122944607991F32E24413
:103520000A55ABE5D84625E6D84678E60892C1E5C7
:10353000D846BDE720239A465B460893BAE5DA00F1
:10354000084B9B185C681B680893099400239946F4
:103550000EAB229C0793FAE440C5011030C5011060
:103560000000E03F48C501103CC50110F0B54E46D3
:103570004546DE465746E0B59BB00A93249B8146FC
:103580001C000B93259B09911D000D920C930022AA
:1035900000232000290001F0B3FA002800D093E1B5
:1035A0000B9A0C9B92469B468023289ADB001A407C
:1035B0000E9201D10623269356465B46334300D133
:1035C00048E15B465800C94B400D9C46604401F001
:1035D000BDFAC74AC74B01F054FAC74AC74B01F0BE
:1035E00031FA5B46C64A1B031B0B1A4304000D004D
:1035F000C44B11005046002201F01FFAC24AC34BCF
:1036000001F03FFA02000B002000290001F01AFA35
:1036100001F0B4FA804601F099FABD4ABD4B0400AE
:103620000D0001F02EFA0022BB4B01F00BFA01F065
:10363000A5FABA4A0600BA4B2000290001F021FA87
:10364000040030000D000F9601F080FAB54AB64B29
:1036500001F017FA02000B002000290001F0EDF93B
:1036600002000B0006000F0001F00BFA320004000C
:103670000D003B003000390001F0E4F90022109009
:103680001191AA4B2000290001F0E1F90022A84B7A
:1036900001F0D8F902000B002000290001F0D7F951
:1036A0000022A44B01F0CEF902000B0020002900FB
:1036B00001F0CDF90D008021320004003B00002014
:1036C000C90501F0BAF902000B002000290001F041
:1036D000B9F902000B001098119901F0B8F9002215
:1036E000874B01F0AFF9944A0F9B94466344002244
:1036F0001B0501F0C6F906000D0002000B00504644
:10370000594601F0FDF900280BD001235B429C468D
:10371000300029000022864BE04401F098F90600B1
:103720000D004346C62763339F42BF41289B7F421B
:1037300004371B0500D5ACE0279B00249F4200D234
:10374000DC1B0223289A1A400E9203D07B427B4155
:103750005B421C404346002B07D05046594632007E
:103760002B0001F074F982468B46002200230B984F
:103770000C9901F0C5F9002800D0A0E0289A6F4B01
:10378000039413400493269B524602935B46099987
:103790000092019348460A9B0D9AFFF785FB0400AF
:1037A000002F4FD0289B65209B066CD4631C220001
:1037B0009A4609990A9BC8474346DA179D18DB0FBA
:1037C00098467B1E55409B46002412AF02E0340011
:1037D000202E0DD028000A2100F0F4FE661C3031A6
:1037E0003C19217028000A2100F0ECFE051EEED1E4
:1037F000052306935B460593002304930A33039342
:1038000043460196099E02930A9B00975246310057
:1038100048469846FFF73EFA0E9B0400002B11D055
:103820000D9F279AC31B9A420CD9279B4D46020035
:1038300099460134434631002020A8472200E31B6B
:103840009945F6D820001BB03CBC90469946A2464C
:10385000AB46F0BD289B56465D461B0515D500239B
:103860009846269A0023424503DD130042469B1AE0
:10387000013B26938023289ADB001A4300232892D9
:103880000027984658E7203890E7002304279846F9
:1038900052E72B003343E4D0294A2A4B504659467D
:1038A00001F034F9002817D1269B002B00D143E703
:1038B0000E9B5A1E9341269AD31A26933CE78021E9
:1038C000090659448B4659E78022120694460C9B00
:1038D000A24663449B4667E600221B4B504659466E
:1038E00001F00EF90028BCD1DEE7C04601FCFFFF65
:1038F000FB799F501344D33FB3C8608B288AC63FDF
:103900000000F03F0000F83F61436F63A787D23F9C
:1039100071A379094F930A400000E03F1655B5BBEB
:10392000B16B0240EF39FAFE422EE63F00002C4018
:103930000000244000001840FF030000FFF7FFFFD5
:103940002D431CEBE2361A3F80842E41F0B54546EC
:10395000DE4657464E46E0B5A1B01D002A9B0992AF
:103960000B93A24AA24B0A9008911A60002900D139
:1039700087E300239B469F4B2C009A465D462078A8
:1039800000280CD025281DD06E1C2A00099B0A9DFA
:1039900008990134A847207835000028F2D1099908
:1039A000AB462A008D4200D34A1E099B089900208D
:1039B0000A9CA047584621B03CBC90469946A24676
:1039C000AB46F0BD1023621C9846083B9C46167817
:1039D000043B9946023B9B463300203BDBB2002769
:1039E00001211400102B0CD850469B00C3589F4651
:1039F0000F430132167814003300203BDBB2102B4A
:103A0000F2D93300303B092B00D8B5E100239846AA
:103A10002A2E00D1A6E200239B462E2E00D1C0E123
:103A20003300683BDBB2122B18D8734A9B00D35883
:103A30009F46634601321F43DCE7434601321F4382
:103A4000D8E74B4601321F43D4E75B4601321F43A0
:103A5000D0E780235B0066781F4301343300253BA9
:103A6000DBB2532B0FD8654A9B00D3589F4666782C
:103A7000682E00D188E280231F433300253BDBB250
:103A80000134532BEFD96F1C2A00099B0A9D08991A
:103A90003000A84701343D0071E766786C2E00D1F4
:103AA0006CE280235B001F430134D7E780239B0037
:103AB00066781F430134D1E70B9B1A1D1B680E92D9
:103AC0000B935B46002B00D12BE20B9A107816006B
:103AD000002804D100F0A4FC013B002B03D00136E8
:103AE0003278002AF8D10B9BF31A0C938023DB0069
:103AF0003B40994603D00C9B5B4500D9ABE20223C7
:103B00003B400F9300D1B3E100281ED04B46002B61
:103B100000D1D0E15B465F190B9BA3465E1BB1460B
:103B20002A00099C0A9E09E023000899551CB04709
:103B30004B46585D002800D1CEE12A009742F3D1D0
:103B40005C463D000F9B002B14D00C9A904511D978
:103B500043465819099B861A98462A00A1460A9F8F
:103B6000089C0135434621002020B8472A00B54271
:103B7000F7D14C460E9B01340B9300E70B9B1A1DAB
:103B80001B689046002B00D1CEE1212217430B97F2
:103B90000F21002218AE8946A44602E00A0020291F
:103BA0000CD048461840C4B22700511C37370928AA
:103BB00001D830342700B7541B09EFD164460B9B62
:103BC00001910693082305935B4604931023039306
:103BD00000232A0002930096099B08990A98FFF790
:103BE00059F84346050001340B93C8E64D390010DF
:103BF000742B002050C3011094C30110E0C30110C6
:103C0000782E00D1C5E1582E00D12FE26F2E00D1C1
:103C100031E3622E00D126E210233A009A430C923F
:103C2000692E01D000F01EFC0A230E937B0500D5FF
:103C3000B7E180270C9BBF001F4000D0B8E21A00FC
:103C400080235B001A40914600D06EE30C9B5B061C
:103C500001D500F0F1FB0C9B0B9A1B0600D4C1E3CD
:103C60000021535E0432D90F14910B92DA179F187A
:103C70005740002B09D10C9910330A009A431300C6
:103C80000A000C93520500D5DEE30C9A61239206DC
:103C900000D54123DBB218AE0A3B16940F934C4675
:103CA0001595B1460E9E0EE03033DBB24A46380021
:103CB0001355310000F086FC071E00D1FDE12C00F9
:103CC000202D00D1F9E13100380000F07BFC651CAB
:103CD000CBB20929E8D90F9A94466344DBB2E5E7F1
:103CE000462E00D1B4E107220B9B04970733934380
:103CF000013294469C4462460B92424603925A46D5
:103D000002921A685B680899009201930A982A0047
:103D1000099BFFF7C9F80134050030E66E1C2A0044
:103D2000099B0A9D08992520A8470134350026E6FD
:103D3000BB0700D5D2E04346012B00D888E3099B9E
:103D40006F1E474498462A00A1460A9D089C561CAF
:103D5000434621002020A8473200BE42F7D14C46FE
:103D60000B9B32001F1D1878751C099B08990A9E31
:103D7000B04701340B9702E6002332009E00F6188C
:103D800001347600B6182278330011003039303B08
:103D90000929F3D99846002316009B462E2E00D001
:103DA0003EE680236678DB001F433300303B621C15
:103DB000092B11D8140033005A469600B618013466
:103DC0007600F6182378320019003039303A092984
:103DD000F3D91E00934623E62A2E00D181E1140078
:103DE0001EE6202332009A43472A04D180231B0178
:103DF0001F4302239E43452E01D120231F43072248
:103E00000B9B07339343013294469C4462460B92CA
:103E10001A685B68100019000C900D9100F083FE89
:103E2000002800D08CE00C980D990122CA4B524218
:103E300000F074FE002800D082E00C980D99012259
:103E4000C64B524200F05CFE002879D143460393F2
:103E50005B460497029308990C9A0D9B0A9800926E
:103E600001932A00099BFFF781FB0134050086E5D9
:103E70000C990B000133884500D8EBE243462A0039
:103E80005F190C94089D0A9C7F1A561C099B2900F7
:103E90002020A0473200BE42F7D14346350001330F
:103EA0000C9C0C930B9B1878002800D162E64B46C3
:103EB000002B00D02EE62A000B9BA3465F1BB946C1
:103EC0000A9E089C099F3B002100551CB0474B46A9
:103ED000585D2A000028F6D15C4633E60B9B089912
:103EE0001A1D18789146099B2A000A9FB847434635
:103EF0006E1C4544012B00D8AEE2A3463200A84612
:103F0000089C099E0A9D571C330021002020A847C9
:103F10003A004745F7D15C464B463D000B930134D0
:103F20002DE501235B42D0E5102239009143113287
:103F300011430B917A0500D42AE6002118AE3EE623
:103F4000434603935B460497029308990C9A0D9B92
:103F50000A98009201932A00099BFEF7A5FF0134FD
:103F600005000CE50B990B0009680433884600290D
:103F700000DAB0E056780B93541C4CE5C0239B004C
:103F8000A6781F43023469E5C023A6781F43023494
:103F900064E510230E930C233A009A430C927B05A0
:103FA00002D501239A430C92692E00D141E6642E7A
:103FB00000D13EE680270C9BBF001F4000D09EE052
:103FC0001A0080235B001A40914600D070E10C9BE0
:103FD0005B0600D51FE20C9B1B0600D408E20B9B7E
:103FE0001F8804330B93002F09D10C9910230A006A
:103FF0009A4313000A000C93520500D5D4E00C9AA2
:104000006123920600D54123DBB218AE0A3B15941A
:104010000F934C461495B1460E9E0CE03033DBB244
:104020004A4638001355310000F0CCFA071E2BD059
:104030002C00202D28D03100380000F0C3FA651C78
:10404000CBB20929EAD90F9A94466344DBB2E7E779
:1040500020231F4347E65B460C9302233B400F930C
:1040600000D051E504E702230E9394E70C233A00B5
:104070009A4314331A4310230C920E937B0590D469
:1040800098E7374B0A9374E44E462A00159C149D1A
:104090000C9B0693434605935B4604930E9B039348
:1040A0000023029301922A000096099B08990A981E
:1040B000FEF7F0FD0134050061E44E462A00169C2F
:1040C000159D0C9B0693434605935B4604930E9BFC
:1040D0000393149BE5E702210F434146494288467A
:1040E00048E70B9AA678136802349B46DB4359468F
:1040F000DB171940130004338B460B9390E407221F
:104100000B9B07339343013294469C4462460B92C7
:104110001A685F68130091463B4308D10C9910332D
:104120000A009A4313000A000C9352053CD40C9ADF
:104130006123920600D577E1DBB20A3B0F93434639
:10414000002216930E9B18AE1495159415004C463C
:104150009846B14619E0C046FFFFEF7FFFFFEFFF33
:10416000452C00103032D2B24B4620005A5539004F
:104170004246002300F064FA0F000400014300D11E
:104180008FE03500202E00D18BE042460023200036
:10419000390000F055FAD2B26E1C092AE2D90F9B01
:1041A0009C466244D2B2DFE7002318AE1A006FE7E4
:1041B00007220B9B07339343013294469C4462468B
:1041C0000B921A685B68D917129113911298139980
:1041D0000600564010960E005E401196109E119FEC
:1041E000361A8F41D90F1096119717911A430BD198
:1041F0000C9910230A009A4313000A000C935205ED
:1042000002D5002718AE41E00C9A6123920600D532
:104210000CE1DBB20A3B0F93434616930E9B18AE9C
:10422000002298463300149515941600109C119D99
:10423000994611E03032D2B24B4620009A552900FF
:104240000023424600F0FCF9030004000D000B437C
:1042500014D03E00202F11D0424600232000290018
:1042600000F0EEF9D2B2771C092AE3D90F9B9C46E5
:104270006244D2B2E0E708230E938CE64E46169BCA
:10428000109411959846159C149D0C9B06934346DB
:1042900005935B4604930E9B01970393179B029330
:1042A00001E7169B3200149D159C98464E46EFE69A
:1042B0000B9B1A1D1B6815929946002B0CD10C996B
:1042C00010330A009A4313000A000C93520503D5D9
:1042D000002318AE1A006DE00C9A6123920600D5F7
:1042E000A6E0DBB218AE0A3B14940B934C460F9534
:1042F000B1460E9E0CE03033DBB24A462000D35567
:10430000310000F05FF9041E50D02F00202D4DD059
:104310003100200000F056F97D1CCBB20929EAD902
:104320000B9A94466344DBB2E7E70B9B1A1D1B68AC
:104330001592D9175A184A409146DA0F1692002B57
:104340000CD10C9910330A009A4313000A000C9305
:10435000520503D5002318AE1A0052E00C9A6123CF
:10436000920667D4DBB218AE0A3B14940B934C460A
:104370000F95B1460E9E0CE03033DBB24A4620006A
:10438000D355310000F01EF9041E36D02F00202D29
:1043900033D03100200000F015F97D1CCBB2092983
:1043A000EAD90B9A94466344DBB2E7E74E462A000B
:1043B000149C0F9D0C9B0693434605935B46049308
:1043C0000E9B0393002302930192099B2A000096FF
:1043D00008990A98FEF75EFC159B05000B930134C3
:1043E000FFF7CDFA13680432D90F14910B923DE414
:1043F0000B9B1F6804330B93F5E54E462A00149C73
:104400000F9D0C9B0693434605935B4604930E9BBE
:104410000393169BD7E70B9B1F7804330B93E2E5BE
:1044200000230C93FFF762FB412385E64123F0E66E
:10443000412356E7412395E70B9A137804320B92F8
:1044400000221492FFF712FC002318AE1A0038E67F
:104450002E0085E40C9327E54B4635000B93013481
:10446000FFF78DFA063B17000E93642E00D092E5FD
:10447000530500D595E5FFF7DCFBC0460EB400B54B
:1044800084B005AA08CA01000392009201220448E0
:104490005242FFF75BFA04B008BC03B01847C046AD
:1044A0003D2C001000B585B000931300012202904E
:1044B0000391524202A90248FFF748FA05B000BD35
:1044C000492C001010B5094A84B01468002C09D09A
:1044D000012200910300524203A90548A047012090
:1044E00004B010BD00F09CFD0020F9E7742B002003
:1044F000592C001001480421014B1847401100209D
:1045000031450010014B9B68184700004011002006
:10451000142310B50100188804331B88984710BD78
:10452000162310B50100188802331B88984710BD68
:10453000F8B54746CE4680B50F1E19D014239946CC
:10454000043304000025012698464B46188843464C
:1045500021681B88984701C4431E98410135404299
:104560000640AF42F1D130000CBC90469946F8BDF0
:104570000126F8E7124A936F9B0815D29066D16620
:10458000002905D0FFE7FFE7FFE7516F106F704785
:1045900004B580210906C2175140002800D0C84345
:1045A00017F00EFD002104BDF0B5146E556E576F67
:1045B000166FFFF7E3FF1466556657671667F0BD81
:1045C000000000D0114A936F9B0813D21066516609
:1045D000002905D0FFE7FFE7FFE7516F106F704735
:1045E00004B5002801D00020C04317F0E9FC0021E9
:1045F00004BDC046F0B5146E556E576F166FFFF7C9
:10460000E5FF1466556657671667F0BD000000D0D9
:1046100094464A4A926F9208624601D228E0C04608
:10462000F0B5464E346E756E776F366F00F020F839
:104630009446424A14665566576716676246F0BD4F
:1046400094463E4A926F9208624601D254E0C046B8
:10465000F0B53A4E346E756E776F366F00F04CF8E9
:104660009446364A14665566576716676246F0BD2B
:10467000002B24DB11D000293EDA00B5C9434042AB
:1046800000D1013100F038F8C943404200D1013176
:10469000DB43524200D1013300BD002AEBD1002898
:1046A00001D1002905D00020C90FC90701D1C0439D
:1046B000410800B517F06CFC0022002300BD00B5D6
:1046C00000290ADBDB43524200D1013300F014F829
:1046D000C943404200D1013100BDC943404200D12D
:1046E0000131DB43524200D1013300F005F8DB43D6
:1046F000524200D1013300BD002923D1002B18D133
:10470000002A0CD0BC460D4F38667A660021002383
:10471000FFE7FFE7FFE77A6F386F674670470028CB
:1047200001D00748010000B517F032FC0022002339
:1047300000BD02000B00002000217047000000D0E7
:10474000FFFFFFFF002B00D0BFE0130C28D1002A91
:10475000E7D080B4114F39667A66FFE7FFE730B4DF
:10476000040C7B6F396F1B0423433B667A66FFE7BB
:10477000FFE7FFE7C04684B27B6F3D6F1B04234316
:104780003B667A66FFE7FFE7C04600232C042D0C4A
:104790007A6F386F00196941B0BC7047000000D0D3
:1047A000F0B594460025140E01D112020835140FFD
:1047B00001D112010435940F01D192000235D40FBA
:1047C00001D152000135D40B0134254F7C66254CB4
:1047D0003C660E0C93B2FFE7FFE7FFE73C6F6643D2
:1047E000360C7703BE467343DF0B5B04C01AB94136
:1047F000130C7343DB18C91ACE086643360CB64453
:1048000093B273431F0F1B01C01AB941130C7343BA
:104810001F0B1B05C01AB941860D8F023E4366432C
:10482000360C092D24DB520A7243801A7703460A9C
:104830006643360C16235B1BDE40DF40BF1964461F
:104840006643821B7046043506330100D940A840F8
:10485000C01900D30131A24206D20023F0BD0000EE
:10486000000000D0FFFFFFFF121B0130F3D3F1E780
:1048700009277F1BFE406446A2B27243801A00D211
:104880000139220C7243130C1204821A99410B0055
:104890007046043513370100F940A840801900D351
:1048A0000131002B02D1A2420AD2F0BD013000D367
:1048B0000131121BFAD2013BF8D1A24200D2F0BD65
:1048C000013000D30131121BF7E7F0B51C0C00D00A
:1048D00080E00CB400251C0A04D11B02160E3343E1
:1048E000120208351C0B04D11B01160F33431201B1
:1048F00004359C0B04D19B00960F33439200023584
:10490000DC0B02D192185B4101351C009718644101
:104910000134464F7C66464C3C660E0CFFE7FFE7D1
:10492000FFE7C0463C6F6643360C7703BE4697B23E
:104930007743C01B00D20139C01B00D201399FB29E
:104940007743C91BC91B170C77437E04FF0B801BE1
:10495000B941CE086643360C0C2D33DBB644120B3E
:104960001F053A431B0B97B27743C01B00D2013996
:104970009FB27743C91B170C77433E043F0C801B43
:10498000B941860D8F023E43664329277F1BFE40B7
:104990000C3D7746AF40BF1930BCA2B2ABB27243F8
:1049A0007343801A9941220C7243130C1204801A2B
:1049B000994102000B000137001BA941F9D2781E72
:1049C0000021F0BD0C277F1BFE4077467F0BAF40D8
:1049D000FF19E0E700245D1C07D0144F7D6639669F
:1049E000FFE7FFE7FFE7FFE73C6F95B29EB2654345
:1049F0006643401BB141150C1E0C654366433604EB
:104A00002F0C3E432D04401BB141994204D20200B9
:104A10000B0020000021F0BD01D19042F7D3801A95
:104A2000994101349942F2D3F6E70000000000D02A
:104A3000FFFFFFFF48404140484018B4134B5B68FC
:104A4000019308BD18B4114B1B68019308BD94462F
:104A50000F4A926F920805D2624618B40B4BDB687E
:104A6000019308BD0A4AF0B5146E556E576F166F64
:104A70006246FFF7F2FF064A1466556657671667E7
:104A8000F0BD18B4014B9B68019308BD5C2C00205D
:104A9000000000D0FFB550404240504059404B40CC
:104AA000594000E0FFB5154F4C00640D03D0BC42E7
:104AB00004D10C0314D80020090D09055C00640D15
:104AC00003D0BC4204D11C030AD800221B0D1B05D5
:104AD00001264B4009D44B4003D58B4200D1824282
:104AE000FFBD9942FCD19042FFBD0B43DB1803434D
:104AF0001343F5D0C9434918FFBD0000FF0700006C
:104B000000B5FFF7CFFF804100BDC04600B5FFF7FD
:104B1000C1FF01D9002000BD012000BD00B5FFF795
:104B2000B9FF804100BD012040054A00121804D899
:104B30005A00121801D80020704701207047002049
:104B4000704700000021002805D17047C117484078
:104B5000401AFAD0C90713B5064B1B6898470CBC1E
:104B6000441CA2401005120B0349091B09051943F7
:104B7000114310BDEC2B00201F04000010B54C00A9
:104B8000620D8023D218DB00D21A5B057E2A10DD6D
:104B90009E3A13DACC170903490819435242D1400F
:104BA000640001341532202A05DAD04008436043FE
:104BB00010BD002010BD0846604310BDC80FC018CE
:104BC000013810BD18B4024B5B6A019308BD0000A8
:104BD0005C2C002010B50148FEF712F898C50110B2
:104BE000132370B51C78012C15D010DD0F48FFF78A
:104BF00097FC0F4D01008022280000F0F5F8022CF0
:104C000006D00C48FFF784FC0B4B186070BD084DB4
:104C10000A4BAB64F5E7064D09492A002B008032A8
:104C200002C39A42FCD1054BAB64EAE7534400004F
:104C30005C2C00204C330000EC2B0020454C001075
:104C4000D54B001007B5604601880A0A0230DF2AFA
:104C5000FAD1C9B2820804D3028840880004104304
:104C600000E00068014A5050039007BD5C2C002012
:104C700051434343C9188C46110C83B24B4310B4C3
:104C8000040C614392B280B2504362431C041B0C7B
:104C9000001910BC59411304120CC0185141614451
:104CA000704700004840414048400E4B5B68184741
:104CB0000C4B1B6818470C4A936F9B0802D2094B98
:104CC000DB681847F0B5146E556E576F166FFFF717
:104CD000F6FF054A1466556657671667F0BD014B27
:104CE0009B6818475C2D0020000000D0C10FC90749
:104CF00000D54042002817D0F44603B40B4B1B6884
:104D0000984706BC81409E384042803107D20B064E
:104D100007D04900490AC0051043084360470130E5
:104D2000F8E7490A8902F5E770470000EC2B0020FC
:104D3000014BDB6F184700005C2D002010B50148C7
:104D4000FDF75EFFACC10110132310B51C781148AC
:104D5000FFF7E6FB012C0BD004DD010080220E489A
:104D600000F042F80D48FFF7D3FB0D4B186010BD63
:104D7000094C54220100200000F036F82300094AB3
:104D800080332168002900D1226004349C42F8D18C
:104D9000E8E7C046534600005C2D00204C3300007D
:104DA000EC2B00203D4D001010B50C0015F0A4FFB9
:104DB000002804D0034B04199C4200D810BD0248BF
:104DC000FDF71EFF00000420B0C5011001480421BA
:104DD000014B18475011002031450010014B1B6852
:104DE0001847000050110020014B5B681847000075
:104DF00050110020030010B508001B6811009847EF
:104E000010BDC046F8B54746CE4680B5437D8046C6
:104E10000E001700002B48D0002A2EDD274B01255D
:104E200000240020994604E02B00013401359F4204
:104E300019DD002C3ED0631EF35C0D3B59425941F5
:104E4000CBB2325D0A2AEFD1002BEDD1844226DCB1
:104E5000434648461B6802219847013428002B002E
:104E600001359F42E5DCB8420BDBF619013E337891
:104E70000D3B59425941434619750CBC9046994621
:104E8000F8BD4346391A3018F6191B68013E984799
:104E900033780D3B5942594143461975EDE7434676
:104EA000211A1B6830189847D2E7036811003000B8
:104EB0009847E2E743461B7DC3E7C0462CC6011076
:104EC000F0B5C6460B6800B506000D005A1C802BD5
:104ED00005D02A60ED182E7104BC9046F0BD0F4B32
:104EE0001C68002C16D00B1D0D4F984602E024695B
:104EF000002C0FD02368002BF9D03B68002B01D089
:104F0000A342F4D120002A684146FFF77BFF2469C1
:104F1000002CEFD101220023DBE7C04654270020FC
:104F20005C270020F0B5DE4657464E464546E0B5C4
:104F300083B017001C0006000D00FCF76FFF002374
:104F4000304A12184B41002B02DA01222E4B5242FA
:104F50002E490800884617F063F881466B1C30D054
:104F6000002C2BD12A4B9A462A4B1C68002C15D0BA
:104F7000002F2BD1284F02E02469002C0ED023688B
:104F8000002BF9D03B68002B01D0A342F4D12000C4
:104F90002A003100D0472469002CF0D14B46002B69
:104FA00002D0404616F0ECFF681E8541E8B203B01F
:104FB0003CBC90469946A246AB46F0BD174B9A467C
:104FC000D2E7300016F092F90500C9E7124B9B4674
:104FD0006B46DF1D02E02469002CDFD02368002B24
:104FE000F9D05B461B68002B01D0A342F3D12A0005
:104FF00031002000D0470A230122390020003B70F5
:10500000D047E8E740420F00FFFFFF7F501A002023
:10501000054E0010542700205C270020F54D00109D
:1050200070B5040016F062F90023010005000122AA
:105030002000FFF777FF064B1C68002C06D0636842
:10504000002B00D098472469002CF8D1280070BDAF
:1050500054270020F0B54646DE465746C0B5904678
:1050600082B00E0000282CD11A4B1B4D1A685B68C9
:105070001A4F9A461A4B01929B465B461C68002CBD
:1050800005D115E0A34205D02469002C10D02B686F
:10509000002BF7D1A368002BF6D04146300098478B
:1050A0000028F1DD02B01CBC90469A46A346F0BD34
:1050B0007B6A9A4508D8BA6A01998A4201D29A4510
:1050C00002D001204042EDE701200021FCF7B2FEB2
:1050D000D3E7C04608C301105C270020004005400C
:1050E00054270020F0B54646D6464F460138C0B595
:1050F00015000E0001283ED8FCF790FE00231F4A41
:1051000012184B41002B02DA01221D4B52421D495D
:10511000A9460800884616F083FF82466B1C25D0FE
:10512000194B1C68002C14D0184F02E02469002C85
:105130000FD02368002BF9D03B68002B01D09C4294
:10514000F4D120004A463100FFF75CFE2469002CB0
:10515000EFD15346002B05D128001CBC9046994640
:10516000A246F0BD404616F00BFFF5E7300016F002
:10517000BDF88146D4E701256D42EDE740420F00BE
:10518000FFFFFF7F501A0020542700205C270020DB
:10519000012040427047C046012040427047C0464F
:1051A000012040427047C0460222002382425B41F8
:1051B000180070470A4A1368002B05D10CE01A004A
:1051C0001B691032002B07D09842F8D1002902D178
:1051D00003691360016170470029FCD01060FAE791
:1051E00054270020F0B5CE46474680B5A5B0040050
:1051F0000D00FCF713FE0023274A12184B41002B29
:1052000002DA0122254B5242254E300016F008FFEB
:1052100000230700039322002B0003A92148FFF776
:1052200041F9039B8046002B15D11F4B1C68002CB5
:1052300006D06368002B00D098472469002CF8D171
:10524000002F02D0300016F09BFE404625B00CBC6B
:1052500090469946F0BD144B1C689946002C18D016
:10526000124D02E02469002C11D02368002BF9D0E4
:105270002B68002B01D09C42F4D1039B20001A0024
:1052800004A90193FFF7BEFD2469002CEDD14B4624
:105290001C6800230393CAE740420F00FFFFFF7F13
:1052A000501A0020C14E0010542700205C27002017
:1052B0000FB400B583B004A901C90191FFF792FFB3
:1052C00003B008BC04B0184710B500F0D1F910BD08
:1052D0007047C0460022014B1A7070474E2C0020C8
:1052E000012070474B790020FF2B00D070478B794D
:1052F000002BFBD1CB79012BF8D1082AF6D98A787B
:10530000014B09301A70F1E74E2C002070B50120D6
:10531000012900D070BD13495379107909781B0217
:10532000034300209942F5D15378012B08D0022B7A
:10533000F0D1002064220021FDF76AFB0120E9E79B
:10534000D478917824020C430500E20502D5620A64
:1053500093401D000448FFF7DBF87F210300214044
:10536000280098474E2C002055420000012303706E
:105370000048704730C601104A780B7812021A4371
:105380008B7810B51B041A43CB781B061343962267
:10539000D200934200D010BD0348FFF7B9F80021B6
:1053A000030008009847C04655420000024B1860B1
:1053B000024B19607047C046F0210020F421002004
:1053C00010B5024B1878FBF7CBFC10BD4F2C00201A
:1053D000114B70B51A68002A1AD0EFF3108172B61B
:1053E00010680028FCD0BFF35F8F00220B48596083
:1053F00002701B68BFF35F8F1A6081F3108800246E
:105400000025074B1878FBF7ABFC2900200070BD86
:10541000FA240025A400F4E7AC2B0020512C002036
:105420004F2C002070B5050000200E0001F088FB15
:10543000002834D0002001F09BFB00282FD0FCF77F
:10544000EDFC0023174A12184B41002B02DA01220F
:10545000154B5242154C200016F0E2FD00281ED0DC
:10546000002001F06DFB00280BD1012000214042FB
:10547000032500F0EBFD6D42200016F081FD2800B1
:1054800070BD002001F074FB0028EED0290032002E
:10549000002001F07BFB051EEED1033DECE7032568
:1054A0006D42ECE740420F00FFFFFF7FF42B00202E
:1054B000F8B5DE46574680B505000C00FCF7AEFC9B
:1054C0000023354A12184B41002B02DA0122334BDC
:1054D0005242334908008A4616F0A2FD002803D143
:1054E0000CBC92469B46F8BD002001F029FB002829
:1054F00036D00026002C38DD2A4B9B4615E00028CC
:1055000048D101200021404200F0A0FD002001F020
:10551000BDFB002001F014FB002826D0002001F084
:10552000F1FB002825D0B4421FDD0020A71B01F0AD
:10553000E9FB8742E3DC3A00A919002001F05EFB99
:10554000070001200021404200F080FD002001F012
:105550009DFBFCF763FC134BF61918605960E2E7FA
:10556000002000210F4B18605960504616F008FDCE
:10557000B6E7FCF753FC5B460F001A685B68002136
:105580008446094812184B419F42EED8CBD194452E
:10559000C9D9EAE70700CEE740420F00FFFFFF7FCF
:1055A000F42B0020D81B002020A1070010B5234CAD
:1055B00084B00021200016F013FD002835D1204BC7
:1055C0001A68002A16D0EFF3108172B6106800280E
:1055D000FCD0BFF35F8F01241A48596002781B6822
:1055E000D2B20470BFF35F8F0020186081F310887F
:1055F000002A01D004B010BDFCF79CF80400FCF7B1
:105600000DFCFA220023920012184B41002B02DA03
:1056100001220D4B524201210291002101910B49BF
:1056200020000091FCF78AF8E4E7012000214042C5
:1056300000F00CFD200016F0A3FCDBE7F42B0020AB
:10564000AC2B0020512C0020FFFFFF7FD153001016
:10565000054B10B51868002804D0044B00221968C7
:1056600000F042FC10BDC046F0210020F4210020D3
:10567000D02310B51B0684B01C68FCF75BF8FCF760
:1056800063F9844202D0002004B010BD254B1B7882
:1056900001F048FD2448FBF73BFE0120FBF70CFE20
:1056A000FF23224C224920701840FBF77FFB207813
:1056B0000121FBF743FB0520FBF75AFB002810D024
:1056C0001C4900220520FBF79BFBFBF71BFB01009D
:1056D0001948FBF74BFE19480121FFF76BFD01202C
:1056E000D2E7FCF727F80400FCF798FBFA22002326
:1056F000920012184B41002B02DA0122104B524249
:1057000001210291002101910E4920000091FCF736
:1057100015F80822040000210748FFF75FFB002C62
:10572000B1DBD8E704610510F42B00204F2C0020DA
:10573000AD550010C1530010AC2B002060110020AB
:10574000FFFFFF7FD153001000487047E0C60110F3
:10575000004870478CC6011070B5040016480378E5
:10576000002B1CD0002C06D1C1241448144BA400DB
:105770004380048070BD052C1CD8124BA400E55852
:1057800000230E48821CE95CDCB200290BD00133F7
:1057900011800232132BF6D1CA24A400E9E71121AB
:1057A00000F022F8DEE7C023013464009B001C43B4
:1057B000A4B2DEE70020DDE7182C00206C220020D8
:1057C00009040000F4C6011010B5024800F0ECF81E
:1057D00010BDC046E02B002010B508220149FFF79C
:1057E00003FB10BDE02B0020013910B5002900D1CA
:1057F000A5E06C4B1A78121114003034092A00DD30
:10580000A0E00470012900D199E00F221C78224009
:1058100014003034092A00DD97E04470022900D1D9
:105820008DE05A78121114003034092A00DD8FE01F
:105830008470032900D182E00F225C78224014009A
:105840003034092A00DD86E0C470042977D09A78C4
:10585000121114003034092A00DD7FE0047105299B
:105860006DD00F229C78224014003034092A00DDCC
:1058700077E04471062962D0DA78121114003034CE
:10588000092A00DD70E08471072958D00F22DC78E6
:10589000224014003034092A69DCC47108294ED032
:1058A0001A79121114003034092A63DC04720929B0
:1058B00045D00F221C79224014003034092A5CDCC8
:1058C00044720A293BD05A79121114003034092A43
:1058D00056DC84720B2932D00F225C7922401400EE
:1058E0003034092A4FDCC4720C2928D09A7912115D
:1058F00014003034092A49DC04730D291FD00F220B
:105900009C79224014003034092A42DC44730E2969
:1059100015D0DA79121114003034092A3CDC847372
:105920000F290CD0DA790F2313401A003732092BD4
:1059300001DC30331A00C273102900D0102100237B
:10594000435410BD373214005BE73732140064E76C
:10595000373214006CE73732140075E73732140021
:105960007CE73732140084E7373214008BE7373294
:10597000140092E73732140098E7373214009FE79B
:1059800037321400A5E737321400ACE73732140081
:10599000B2E737321400B9E73732140084730F29A5
:1059A000C0D1CCE7E02B002010B588B004000D2258
:1059B00000216846FFF712FA0D22002104A8FFF724
:1059C0000DFA4B236A4604A9137068460D2216F09F
:1059D000CFFA1521082269442000FFF705FA08B024
:1059E00010BDC04610B501210520FBF7A7F910BD79
:1059F00010B5034800220021203000F065F910BDE9
:105A0000642700208022024B5202DA647047C046AD
:105A100000201150F0B5C64600B5804600F02EF9C2
:105A20000C231B4DFF22AB671A490520FBF7E8F951
:105A3000194C402200212000FFF7D0F94027002315
:105A4000012680202221154A66702783A2601360F8
:105A50006054013963540231635418316354104A5D
:105A600010496360E2602787A1620B606362E262B3
:105A700016F0EEFA80239B052E64EB6490230A4A0D
:105A80004046EA50FFF7BEFF04BC9046F0BDC0465A
:105A9000000011509D060020642700208400105053
:105AA000000110508000105010D001000B785B06F0
:105AB00002D14B78052B00D070478A78014B1A60D1
:105AC000FAE7C04600001150F0B54746CE4680B513
:105AD0004B790A7983B01B0288781343CA786946E8
